S01300006F75747075742F736F66742E7372656375
S214008000130000001300000013000000130000001F
S214008010130000001300000013000000130000000F
S21400802013000000130000001300000013000000FF
S21400803013000000130000001300000013000000EF
S21400804013000000130000001300000013000000DF
S2140080501300000013000000130000006F0040092A
S2140080606F00200A6F00000B6F00E00B6F00C00C63
S2140080706F00C00E6F00600D6F0080106F00200F45
S2100080806F00C0006F00E0106F00C01121
S21400808C81400681868106828682068386830684E4
S21400809C868406858685068686860687868706886F
S2140080AC868806898689068A868A068B868B068C3F
S2140080BC868C068D868D068E868E068F868F17018D
S2140080CC1000130161F36357BD0123200D00110D41
S2140080DCE3DDADFF01458145EF00D0252A842285DE
S2140080ECEF0040211D7186CEC920970000009380BA
S2140080FC80106F0060161D7186CE45289700000014
S21400810C9380600F6F0060151D7186CE79289700DE
S21400811C00009380400E6F0060141D7186CE712097
S21400812C970000009380200D6F0060131D7186CEA3
S21400813CAD28970000009380000C6F0060121D7134
S21400814C86CEA520970000009380E00A6F00801171
S21400815C1D7186CE9928970000009380C0096F0089
S21400816C40101D7186CE9120970000009380A008C9
S21400817C6F00800F1D7186CE0D289700000093802F
S21400818C80076F00400E1D7186CE052097000000FC
S21400819C938060066F00000C1D7186CE3920970008
S2140081AC0000938040056F00000B0EC012C216C470
S2140081BC1AC61EC82ACA2ECC32CE36D03AD23ED4D6
S2140081CC42D646D872DA76DC7ADEFEC0732E007B98
S2140081DCF32E107B732F207BF2C2F6C4FAC6732ED6
S2140081EC407BF32E507B732F607BF2C8F6CAFACC1A
S2140081FC8280464ED64E664F73104E7B73905E7BD7
S21400820C73106F7B164EA64E364F73100E7B739004
S21400821C1E7B73102F7B82411242A2423243C24312
S21400822C5245E245724682561257A2573258C258E9
S21400823C525EE25E725F864FF64025617300203018
S21400824C828000000000000000000000000000001B
S20600825C00001B
S20600825E01A078
S20600826001A076
S20600826201A074
S20600826401A072
S20600826601A070
S20600826801A06E
S20600826A01A06C
S20600826C01A06A
S20600826E01A068
S20600827001A066
S20600827201A064
S20600827401A062
S214008276411106C622C463F4D500014429A03684FB
S214008286B2853686A9282285B240224441018280DC
S20600829625A814
S214008298931585010605FD85ED892D8D1375F50F5A
S2060082A88280CD
S2140082AA05C281462E960347050083C70500850545
S2140082BA3D8FD98E0505E398C5FE13F5F60F828025
S2080082CA0145828063
S2140082CE11CA2A96AA86138716002380B600BA8687
S20A0082DEE31BC7FE8280D0
S2140082E409CE2A96AA8603C7050085059387160035
S2100082F42380E600BE86E398C7FE82806A
S20600830001A0D5
S20600830201A0D3
S21400830441112AC632456358A00001450100B24512
S20E0083140505E34DB5FE4101828029
S21400831E9305050137061000130606008346050072
S21400832EB29683C606002300D5000505E318B5FEF3
S20600833E828036
S214008340034855008348650003437500834E950037
S2140083508347A5008342B500034ED5008345E5005C
S2140083608346F50083431500034625000347350082
S214008370A30005012301F500A301D500A302D50142
S2140083802303B500A303E500A304C5012305C50028
S214008390A3056500A306750023071501A30755006E
S2060083A08280D4
S2140083A20146A1461397F501931785017D87698FCC
S2140083B20605FD16FD87ED8B398E3D8D8581FDF216
S20A0083C21375F60F828021
S2140083C8797106D622D426D24AD04ECE014F9308CB
S2140083D8C10011488146931F2F00B305F50103C954
S2140083E8050009472146CA859397F5019314870126
S2140083F8FD87F98F0607E2057D16FD84ED88BD8E9C
S214008408258FE58175F20147938E1F00B305D501C8
S21400841883C305008D4521469E879394F7011394E0
S2140084288501FD84ED8C8605E2077D167D846D88C2
S214008438258FA18DE58375F2B98E13832F0093825D
S2140084483F00B30565003307550003CE0500834992
S2140084580700C69F0947B3C5C601B3C535012380C3
S214008468BF00A1459E879396F70113148701FD86E2
S214008478F98E0607E207FD157D846D88358E218FF7
S214008488E583F5F18D47214772849316F40193949A
S2140084988701FD86FD8E860762047D17FD84ED88BC
S2140084A8B58DA58F658075F3B3C62901358EC69E32
S2140084B8B18D09462380BE00A145F2879396F70141
S2140084C893148601FD86F18E0606E207FD15FD84E7
S2140084D8ED88358F258EE583F5F10146B3CE230169
S2140084E88D47A145CE869394F60113948701FD84A3
S2140084F8FD8C8607E206FD157D846D88258EA18F86
S214008508E582F5F1B3C6EE004693358E0D47230097
S214008518C30021469316F90193178701FD86F98E45
S214008528060762097D16FD87ED8BB58D3D8F1359BD
S21400853899016DF2894721479396F901939487012B
S214008548FD86FD8E8607E2097D17FD84ED88358E4B
S214008558A58F93D999016DF3B3467E00C692B58D63
S214008568B18D050F2380B200E3160FE76C00414675
S214008578B533B250225492540259F249456182806A
S2140085881306050183C6050003470500B98E2300B8
S210008598D50005058505E317C5FE8280AA
S2140085A48322050003284500832885005C45B3859F
S2140085B4552633060627B38616273307F726B385CC
S2140085C4056733061667B386F66633075766B385BC
S2140085D415A73306F6A6B38656A6330707A7B385AC
S2140085E4F5E6330656E6B38606E7330717E70CC107
S20C0085F450C114C558C5828071
S2140085FC8322050003284500832885005C45B38547
S21400860C552233060623B38616233307F722B38583
S21400861C056333061663B386F66233075762B38573
S21400862C15A33306F6A2B38656A2330707A3B38563
S21400863CF5E2330656E2B38606E3330717E30CC1BE
S20C00864C50C114C558C5828018
S214008654011122CE26CC4ACA4EC852C656C45AC2A5
S2140086645EC0034805008348150083422500034383
S214008674350083434500034E5500834E6500034F83
S2140086847500834F8500034995008349A500034A76
S214008694B5008041034BC5008346D500834BE500F7
S2140086A4834AF50033000424A20833E80801C20212
S2140086B46203B3625300220EB3687E00C20E620FDA
S2140086C43363DF012209B364F901C209620A33671E
S2140086D43A01C841A206B3E66601C20B330005643C
S2140086E48845E20AB3E77A0133E40201330005A4BD
S2140086F4C845B3651301458F33E8D700330005E456
S21400870433050028B3070068B30400A8B30600E8DE
S214008714218D33000020BD8DB3070028258FB304B8
S2140087240068B3C60601330400A8330800E8B3871C
S214008734A72633000020B387B766B384B426B3876E
S214008744E7A6B384E4663304E426B387D7E6B384A3
S214008754D4A63304D466B306D82633080028B384D4
S214008764A4E63304A4A63385A666B30600683304D9
S214008774B4E63305B5A6B30500A83305E5E6B308A5
S21400878400E83307F8263300002033079766B386DD
S2140087949626330787A6B3868666B385852633076B
S2140087A4A7E6B386A6A6B385A5663385A8263308AA
S2140087B40028B386F6E6B385F5A63305F566B30753
S2140087C40068B38595E6330595A6B30400A833057B
S2140087D485E6B30800E83304E826330000203304B3
S2140087E4D466B387D7263304B4A6B387B766B384F0
S2140087F4B4263304A4E6B387A7A6B384A466338555
S214008804A82633080028B387E7E6B384E4A633052E
S214008814E56633070068B384D4E63305D5A6B30605
S21400882400A83305B5E6B30800E8B3058826330088
S2140088340020B385F5663307F726B38595A6330778
S2140088449766B3869626B385A5E63307A7A6B386AA
S214008854A6663385A82633080028330787E6B3863A
S21400886486A63305856633040068B386F6E63305C4
S214008874F5A6B30700A8330595E6B30800E8B304E5
S214008884B82633000020B384E4663304E426B384B5
S214008894D4A63304D466B387D726B384A4E63304B5
S2140088A4A4A6B387A7663385A8263308002833040E
S2140088B4B4E6B387B7A63305B566B3050068B387D1
S2140088C4E7E63305E5A6330700A83305D5E6B3087F
S2140088D400E8B306982633000020B3868666B38580
S2140088E48526B386F6A6B385F5663307F726B386DC
S2140088F4A6E6B385A5A63307A7663385A826330858
S2140089040028B38595E6330797A633059566B30422
S2140089140068330787E6330585A6330400A83305C5
S214008924F5E6B30800E8B307D82633000020B3877B
S214008934B766B384B426B387E7A6B384E466330481
S214008944E426B387A7E6B384A4A63304A4663385D3
S214008954A82633080028B384D4E63304D4A6330503
S214008964D566B30600683304B4E63305B5A6B30586
S21400897400A83305E5E6B30800E83307F826330015
S214008984002033079766B3869626330787A6B386F2
S2140089948666B38585263307A7E6B386A6A6B3857B
S2140089A4A5663385A82633080028B386F6E6B3857D
S2140089B4F5A63305F566B3070068B38595E6330573
S2140089C495A6B30400A8330585E6B30800E8330487
S2140089D4E826330000203304D466B387D72633044E
S2140089E4B4A6B387B766B384B4263304A4E6B387C1
S2140089F4A7A6B384A4663385A82633080028B387BD
S214008A04E7E6B384E4A63305E56633070068B38473
S214008A14D4E63305D5A6B30600A83305B5E6B308F1
S214008A2400E8B3058822B385F5623307F722B385D9
S214008A3495A233079762B3869622B385A5E23307D9
S214008A44A7A2B386A6623385A822330787E2B38635
S214008A5486A23305856213D8850113D40501B3862F
S214008A64F6E23305F5A293D785002300B600A300EB
S214008A74F60023018600A301060193558701935748
S214008A84070113548700330595E22302E600A30288
S214008A9486002303F600A303B60093D5860113D7F6
S214008AA4060193D786002304D600A304F600230504
S214008AB4E600A305B60093558501935605011357A2
S214008AC485002306A600A306E6002307D600A30710
S214008AD4B6007244E2445249C249324AA24A124B90
S20A008AE4824B0561828052
S214008AEA011106CE22CC26CA4AC84EC652C42E84C5
S214008AFABD8999ED11CC3689B2892A8A8144330513
S214008B0A9A0033069900CE858936C104E3E984FEC5
S214008B1AF2406244D2444249B249224A05618280FE
S208008B2A0CC1828073
S214008B2E13060501944114C111059105E31CC5FEFB
S206008B3E82802E
S214008B40011106CE22CC26CA3724100037051000A5
S214008B5013050512B7051000938505105000440054
S214008B60D53C3715A5FBB7F54B7137B6252EB7168E
S214008B70F9AA130545919385F5411306E6AB93864E
S214008B80F68008D84CD810DC54DC124528C02245A4
S214008B9068C0324528C4C245414537061000130652
S214008BA00611B7B6AABA6CC437C7FECA9385D6AA4A
S214008BB09306E7AB03C70400834706006317F70076
S214008BC07D15050685047DF5B6854CC037C5ADDE3A
S214008BD01305F5EEB725100088C10145F240624442
S20A008BE0D244056182800C
S214100000637C777BF26B6FC53001672BFED7AB76C0
S214100010CA82C97DFA5947F0ADD4A2AF9CA472C06B
S214100020B7FD9326363FF7CC34A5E5F171D83115D8
S21410003004C723C31896059A071280E2EB27B275F9
S21410004009832C1A1B6E5AA0523BD6B329E32F8471
S21410005053D100ED20FCB15B6ACBBE394A4C58CF69
S214100060D0EFAAFB434D338545F9027F503C9FA83D
S21410007051A3408F929D38F5BCB6DA2110FFF3D20B
S214100080CD0C13EC5F974417C4A77E3D645D1973BF
S21410009060814FDC222A908846EEB814DE5E0BDBB9
S2141000A0E0323A0A4906245CC2D3AC629195E479F0
S2141000B0E7C8376D8DD54EA96C56F4EA657AAE084A
S2141000C0BA78252E1CA6B4C6E8DD741F4BBD8B8AE5
S2141000D0703EB5664803F60E613557B986C11D9E4B
S2141000E0E1F8981169D98E949B1E87E9CE5528DFC2
S2141000F08CA1890DBFE6426841992D0FB054BB16EE
S214100100636573653430343070617373776F7264FF
S2141001101409A5FB1FF44B71BEAA252E0F08F9AAC9
S21410012048656C6C6F2C20576F726C6421303030C1
S8040080D2A9
