S01300006F75747075742F736F66742E7372656375
S214008000130000001300000013000000130000001F
S214008010130000001300000013000000130000000F
S21400802013000000130000001300000013000000FF
S21400803013000000130000001300000013000000EF
S21400804013000000130000001300000013000000DF
S2140080501300000013000000130000006F0040092A
S2140080606F00200A6F00000B6F00E00B6F00C00C63
S2140080706F00C00E6F00600D6F0080106F00200F45
S2100080806F00C0006F00E0106F00C01121
S21400808C81400681868106828682068386830684E4
S21400809C868406858685068686860687868706886F
S2140080AC868806898689068A868A068B868B068C3F
S2140080BC868C068D868D068E868E068F868F17018D
S2140080CC1000130161F36357BD0123200D00110D41
S2140080DCE3DDADFF01458145EF0070212A84228542
S2140080ECEF0040211D7186CEC920970000009380BA
S2140080FC80106F0060161D7186CE45289700000014
S21400810C9380600F6F0060151D7186CE79289700DE
S21400811C00009380400E6F0060141D7186CE712097
S21400812C970000009380200D6F0060131D7186CEA3
S21400813CAD28970000009380000C6F0060121D7134
S21400814C86CEA520970000009380E00A6F00801171
S21400815C1D7186CE9928970000009380C0096F0089
S21400816C40101D7186CE9120970000009380A008C9
S21400817C6F00800F1D7186CE0D289700000093802F
S21400818C80076F00400E1D7186CE052097000000FC
S21400819C938060066F00000C1D7186CE3920970008
S2140081AC0000938040056F00000B0EC012C216C470
S2140081BC1AC61EC82ACA2ECC32CE36D03AD23ED4D6
S2140081CC42D646D872DA76DC7ADEFEC0732E007B98
S2140081DCF32E107B732F207BF2C2F6C4FAC6732ED6
S2140081EC407BF32E507B732F607BF2C8F6CAFACC1A
S2140081FC8280464ED64E664F73104E7B73905E7BD7
S21400820C73106F7B164EA64E364F73100E7B739004
S21400821C1E7B73102F7B82411242A2423243C24312
S21400822C5245E245724682561257A2573258C258E9
S21400823C525EE25E725F864FF64025617300203018
S21400824C828000000000000000000000000000001B
S20600825C00001B
S20600825E01A078
S20600826001A076
S20600826201A074
S20600826401A072
S20600826601A070
S20600826801A06E
S20600826A01A06C
S20600826C01A06A
S20600826E01A068
S20600827001A066
S20600827201A064
S20600827401A062
S214008276411106C622C463F4D500014429A03684FB
S214008286B2853686A9282285B240224441018280DC
S20600829625A814
S214008298931585010605FD85ED892D8D1375F50F5A
S2060082A88280CD
S2140082AA05C281462E960347050083C70500850545
S2140082BA3D8FD98E0505E398C5FE13F5F60F828025
S2080082CA0145828063
S2140082CE11CA2A96AA86138716002380B600BA8687
S20A0082DEE31BC7FE8280D0
S2140082E409CE2A96AA8603C7050085059387160035
S2100082F42380E600BE86E398C7FE82806A
S20600830001A0D5
S20600830201A0D3
S21400830441112AC632456358A00001450100B24512
S20E0083140505E34DB5FE4101828029
S21400831E9305050137061000130606008346050072
S21400832EB29683C606002300D5000505E318B5FEF3
S20600833E828036
S214008340034855008348650003437500834E950037
S2140083508347A5008342B500034ED5008345E5005C
S2140083608346F50083431500034625000347350082
S214008370A30005012301F500A301D500A302D50142
S2140083802303B500A303E500A304C5012305C50028
S214008390A3056500A306750023071501A30755006E
S2060083A08280D4
S2140083A20146A1461397F501931785017D87698FCC
S2140083B20605FD16FD87ED8B398E3D8D8581FDF216
S20A0083C21375F60F828021
S2140083C8797106D622D426D24AD04ECE014F9308CB
S2140083D8C10011488146931F2F00B305F50103C954
S2140083E8050009472146CA859397F5019314870126
S2140083F8FD87F98F0607E2057D16FD84ED88BD8E9C
S214008408258FE58175F20147938E1F00B305D501C8
S21400841883C305008D4521469E879394F7011394E0
S2140084288501FD84ED8C8605E2077D167D846D88C2
S214008438258FA18DE58375F2B98E13832F0093825D
S2140084483F00B30565003307550003CE0500834992
S2140084580700C69F0947B3C5C601B3C535012380C3
S214008468BF00A1459E879396F70113148701FD86E2
S214008478F98E0607E207FD157D846D88358E218FF7
S214008488E583F5F18D47214772849316F40193949A
S2140084988701FD86FD8E860762047D17FD84ED88BC
S2140084A8B58DA58F658075F3B3C62901358EC69E32
S2140084B8B18D09462380BE00A145F2879396F70141
S2140084C893148601FD86F18E0606E207FD15FD84E7
S2140084D8ED88358F258EE583F5F10146B3CE230169
S2140084E88D47A145CE869394F60113948701FD84A3
S2140084F8FD8C8607E206FD157D846D88258EA18F86
S214008508E582F5F1B3C6EE004693358E0D47230097
S214008518C30021469316F90193178701FD86F98E45
S214008528060762097D16FD87ED8BB58D3D8F1359BD
S21400853899016DF2894721479396F901939487012B
S214008548FD86FD8E8607E2097D17FD84ED88358E4B
S214008558A58F93D999016DF3B3467E00C692B58D63
S214008568B18D050F2380B200E3160FE76C00414675
S214008578B533B250225492540259F249456182806A
S2140085881306050183C6050003470500B98E2300B8
S210008598D50005058505E317C5FE8280AA
S2140085A41041544118455C4503A8050083A84500BE
S2140085B483A28500CC453308C826B388D826B38260
S2140085C4E226B385F5263308D866B388E866B38210
S2140085D4F266B385C5663308E8A6B388F8A6B38200
S2140085E4C2A6B385D5A6B307F8E63386C8E6B3862F
S2140085F4D2E6B385E5E61CC150C114C54CC58280DD
S2140086041041544118455C4503A8050083A845005D
S21400861483A28500CC453308C822B388D822B38207
S214008624E222B385F5223308D862B388E862B382BF
S214008634F262B385C5623308E8A2B388F8A2B382AF
S214008644C2A2B385D5A2B307F8E23386C8E2B386DE
S214008654D2E2B385E5E21CC150C114C54CC5828084
S214008664797106D63288834805008342150083470D
S214008674250083463500034645000347550003435B
S214008684650083437500A202C207E2062207B3E828
S214008694120133EEF600B362C70003478500834732
S2140086A495000346A5008346B5004203E203A207ED
S2140086B44206E20633E36300B3E3E7008347C500FC
S2140086C40347D500558E8346E5000345F50022078B
S2140086D45D8FC2066205558DB3661E01B3675300EF
S2140086E433667600598D984136CE3ED032D22AD49F
S2140086F433000724C841330005648845330005A4C5
S214008704C845330005E4330500282AC63305006847
S2140087142AC8330500A82ACA330600E868086C008D
S21400872432CC701083C6050003470500B98E2300BB
S214008734D50005058505E317C5FE33000020B308FC
S2140087440028B3020068330300A8B30300E87247A6
S21400875482571255A255330000203386E826B38686
S214008764F226B308A326B382B3263306F666B38688
S214008774A666B388B8663306A6A6B383B6A6B305BC
S214008784B6E6330300283386E266B386E8A6338764
S214008794E3E6B30800683306F6A6B386F6E6B30245
S2140087A400A83305A6E6B30300E833000020B307A9
S2140087B4B3263386E826B388D226B382A326B387A5
S2140087C4E7663306D666B388A866B387D7A6B30328
S2140087D4A6A63385A7E633030028B387B266338696
S2140087E4B8A6B385B3E6B3080068B387E7A633062E
S2140087F4E6E6B30300A8B386D7E6B30200E8330080
S2140088040020B307A3263387B826B388C326B387C6
S214008814B7663307C766B388D866B382D226B387EB
S214008824C7A6B303D7A6B386D7E633030028B38711
S214008834A8A63387A2663385A3E6B3080068B38781
S214008844B7E6B305B7A6B30300A8B385C5E6B30277
S21400885400E8330000203306D3263387A8263306E1
S214008864A6663307F766B388F3263306F6A63307F9
S214008874B7A6B388B866B382B226B305B6E63303A2
S21400888400283307D7E63386D8A6B386D266B3085D
S21400889400683306A6E63385A6A6B30300A8330508
S2140088A4F5E6B30200E8B307B32633000020B38727
S2140088B4E766B386E826B387C7A6B386C666B388D4
S2140088C4C326B387A7E6B386A6A6B388A86633836B
S2140088D4A226B3020028B386B6E63385B8A6B30547
S2140088E4B366B30800683305E5E6B385E5A6B303C7
S2140088F400A8B385C5E6330300E83386F2263300C2
S21400890400203306D6663387D8263306A6A6330752
S214008914A766B388A3263306B6E63307B7A6B38896
S214008924B8663303B326B30200283307F7E6B385E5
S214008934F8A6B307F366B3080068B385D5E6B3862E
S214008944D7A6B30300A83385A6E6330300E8B386A8
S214008954C22633000020B386E666B387E826B386CD
S214008964B6A6B387B766B388B326B386A6E6B38738
S214008974A7A6B388A8663303A326B3020028B38742
S214008984C7E63385C8A63306C366B308006833054E
S214008994E5E63306E6A6B30300A8B305B6E6330356
S2140089A400E83386D226330000203306F666338783
S2140089B4F8263306A6A63307A766B388A326330687
S2140089C4B6E63307B7A6B388B8663303B326B3024E
S2140089D400283307D7E6B385D8A6B306D366B3080C
S2140089E40068B385F5E6B386F6A6B30300A8338518
S2140089F4A6E6330300E8B386C22633000020B38617
S214008A04E666B387E826B386B6A6B387B766B388A2
S214008A14B326B386A6E6B387A7A6B388A8663303A9
S214008A24A326B3020028B387C7E63385C8A6330651
S214008A34C366B30800683305E5E63306E6A6B30363
S214008A4400A8B305B6E6330300E83386D22233061D
S214008A54F6623387F822B308A6A23307A7623386E2
S214008A64A322B388B8E23307B7A23306B662B305C7
S214008A74B3223307D7E23306D6A2B385D5623306CC
S214008A84F6E2B385F5A23385A5E246CE3AD032D2D5
S214008A942AD46C0841464285A130B2504561828092
S214008AA4011106CE22CC26CA4AC84EC652C42E840B
S214008AB4BD8999ED11CC3689B2892A8A8144330559
S214008AC49A0033069900CE85613EC104E3E984FE2C
S214008AD4F2406244D2444249B249224A0561828045
S208008AE40CC18280BA
S214008AE813060501944114C111059105E31CC5FE42
S206008AF8828075
S214008AFA011106CE22CC26CA3724100037051000EC
S214008B0A13050512B705100093850510500044009A
S214008B1AA9363715A5FBB7F54B7137B6252EB71606
S214008B2AF9AA130545919385F5411306E6AB938694
S214008B3AF68008D84CD810DC54DC124528C02245EA
S214008B4A68C0324528C4C245414537061000130698
S214008B5A0611B7B6AABA6CC437C7FECA9385D6AA90
S214008B6A9306E7AB03C70400834706006317F700BC
S214008B7A7D15050685047DF5B6854CC037C5ADDE80
S214008B8A1305F5EEB725100088C10145F240624488
S20A008B9AD2440561828052
S214100000637C777BF26B6FC53001672BFED7AB76C0
S214100010CA82C97DFA5947F0ADD4A2AF9CA472C06B
S214100020B7FD9326363FF7CC34A5E5F171D83115D8
S21410003004C723C31896059A071280E2EB27B275F9
S21410004009832C1A1B6E5AA0523BD6B329E32F8471
S21410005053D100ED20FCB15B6ACBBE394A4C58CF69
S214100060D0EFAAFB434D338545F9027F503C9FA83D
S21410007051A3408F929D38F5BCB6DA2110FFF3D20B
S214100080CD0C13EC5F974417C4A77E3D645D1973BF
S21410009060814FDC222A908846EEB814DE5E0BDBB9
S2141000A0E0323A0A4906245CC2D3AC629195E479F0
S2141000B0E7C8376D8DD54EA96C56F4EA657AAE084A
S2141000C0BA78252E1CA6B4C6E8DD741F4BBD8B8AE5
S2141000D0703EB5664803F60E613557B986C11D9E4B
S2141000E0E1F8981169D98E949B1E87E9CE5528DFC2
S2141000F08CA1890DBFE6426841992D0FB054BB16EE
S214100100636573653430343070617373776F7264FF
S2141001101409A5FB1FF44B71BEAA252E0F08F9AAC9
S21410012048656C6C6F2C20576F726C6421303030C1
S8040080D2A9
